:020000040800F2
:100000000020002001FC000819EF000823EF000881
:1000100000000000000000000000000000000000E0
:1000200000000000000000000000000031EF0008A8
:1000300000000000000000003BEF000845EF000852
:1000400051FC00080000000051FC000851FC0008B1
:1000500051FC0008DDEE0008EDEE0008FDEE0008A2
:100060000000000051FC000851FC000855EF00089A
:1000700051FC000851FC000851FC00080000000081
:1000800051FC000885EE00080000000051FC00084B
:10009000A5EE0008C1EE000851FC000851FC000864
:1000A00051FC000851FC000851FC000851FC0008FC
:1000B0006DEE0008000000000000000000000000DD
:1000C00010B5064C2378002B07D1054B002B02D02E
:1000D000044800E000BF0123237010BD0C00002085
:1000E00000000000C0FC0008044B10B5002B03D03A
:1000F0000349044800E000BF10BDC04600000000F6
:1001000010000020C0FC0008002243088B4274D37A
:1001100003098B425FD3030A8B4244D3030B8B4208
:1001200028D3030C8B420DD3FF22090212BA030C11
:100130008B4202D31212090265D0030B8B4219D3F2
:1001400000E0090AC30B8B4201D3CB03C01A524112
:10015000830B8B4201D38B03C01A5241430B8B425A
:1001600001D34B03C01A5241030B8B4201D30B0343
:10017000C01A5241C30A8B4201D3CB02C01A52416A
:10018000830A8B4201D38B02C01A5241430A8B422D
:1001900001D34B02C01A5241030A8B4201D30B0216
:1001A000C01A5241CDD2C3098B4201D3CB01C01A30
:1001B000524183098B4201D38B01C01A524143093A
:1001C0008B4201D34B01C01A524103098B4201D328
:1001D0000B01C01A5241C3088B4201D3CB00C01A95
:1001E000524183088B4201D38B00C01A524143080D
:1001F0008B4201D34B00C01A5241411A00D2014632
:10020000524110467047FFE701B5002000F0F0F8BA
:1002100002BDC0460029F7D076E7704703460B437E
:100220007FD4002243088B4274D303098B425FD3EF
:10023000030A8B4244D3030B8B4228D3030C8B421B
:100240000DD3FF22090212BA030C8B4202D3121201
:10025000090265D0030B8B4219D300E0090AC30BD6
:100260008B4201D3CB03C01A5241830B8B4201D383
:100270008B03C01A5241430B8B4201D34B03C01A6C
:100280005241030B8B4201D30B03C01A5241C30AE4
:100290008B4201D3CB02C01A5241830A8B4201D355
:1002A0008B02C01A5241430A8B4201D34B02C01A3F
:1002B0005241030A8B4201D30B02C01A5241CDD2E4
:1002C000C3098B4201D3CB01C01A524183098B422F
:1002D00001D38B01C01A524143098B4201D34B0118
:1002E000C01A524103098B4201D30B01C01A52417B
:1002F000C3088B4201D3CB00C01A524183088B4202
:1003000001D38B00C01A524143088B4201D34B00EA
:10031000C01A5241411A00D201465241104670475C
:100320005DE0CA0F00D04942031000D34042534061
:1003300000229C4603098B422DD3030A8B4212D321
:10034000FC22890112BA030A8B420CD38901921153
:100350008B4208D3890192118B4204D389013AD090
:10036000921100E08909C3098B4201D3CB01C01A65
:10037000524183098B4201D38B01C01A5241430978
:100380008B4201D34B01C01A524103098B4201D366
:100390000B01C01A5241C3088B4201D3CB00C01AD3
:1003A000524183088B4201D38B00C01A5241D9D2EB
:1003B00043088B4201D34B00C01A5241411A00D26C
:1003C0000146634652415B10104601D34042002B68
:1003D00000D54942704763465B1000D3404201B5E7
:1003E000002000F005F802BD0029F8D016E770479C
:1003F0007047C046844608006146FFE71FB500F01D
:100400008BFB002801D40021C8421FBD10B500F0AD
:100410000BFB4042013010BD10B500F07DFB002801
:1004200001DB002010BD012010BDC04610B500F05A
:1004300073FB002801DD002010BD012010BDC04667
:1004400010B500F019FB002801DC002010BD0120D0
:1004500010BDC04610B500F00FFB002801DA0020E7
:1004600010BD012010BDC0469E2110B5C905041C59
:10047000FFF7F0FF002803D1201C00F07DFE10BD27
:100480009E21201CC90500F0D3FC00F075FE8023DE
:100490001B069C466044F2E770B500220C4B04003A
:1004A0000D0001F0F1FD002804D12000290001F029
:1004B00033FD70BD064B00222000290001F090F9A9
:1004C00001F02AFD80231B069C466044F1E7C046EC
:1004D0000000E041F8B5CE46474643025A0A4E02B4
:1004E0004500C40F480091462D0E720A000E944636
:1004F00080B59B09C90FB6092A1A8C4221D0002A5F
:100500000DDD00282DD1002E00D18DE0511E012AD5
:1005100000D11DE1FF2A00D1ABE00A0027E0002A4C
:100520004DD0421B002D00D0CCE0002B00D179E053
:10053000541E012A00D128E1FF2A00D197E02200B1
:10054000C5E0002A00DC96E000284FD0FF2D00D146
:100550008FE08021C9040E431B2A51DD2A0001339C
:1005600018E0FF2D00D184E08021C9040E43012151
:100570001B2A08DC31002020D140821A964032002C
:10058000501E824111435B1A5A0159D407212A0097
:10059000194049D00F211940042900D004335901D2
:1005A00042D5501CFE2A3AD09B01C0B25B0AC0055E
:1005B0001843E4072043C0BCB946B046F8BDFE204E
:1005C00080466F1C38004746074200D08EE0002D61
:1005D00000D0B4E0002B00D1DBE0002E6CD0981BE3
:1005E000450100D4F7E00C00F31A3DE0002E1BD0CB
:1005F000511E012A00D182E0FF2A3AD00A00ABE75F
:1006000031002020D140821A96403200501E824193
:100610000A439B185A01B9D56A1CFE2D75D1FF20DB
:100620000023C4E70C003300DB08FF2A46D1002B6F
:10063000F5D08022D20313435B02FF205B0AB6E7AA
:100640009F01BF09380001F029FD05388740854228
:1006500024DC3B002021421B0132D3408A1A974000
:100660007A1E974100223B43590793D197E70C002C
:100670003300DB08DBE7002A14D0421B002D4BD1EE
:10068000002BD0D0511E012A00D19EE0FF2AEFD0CE
:100690000A001B2A5FDD0200731C7BE7504B2A1AFD
:1006A0003B40E1E7FE216A1C11423BD1002D5DD1A8
:1006B000002B7FD0002E7FD10022DB085B025B0A7B
:1006C000D0B274E7FF28D2D08024E404234301246D
:1006D0001B2A07DC1C002025D440AA1A93405A1E6E
:1006E00093411C43331B05000C004DE79F1B7A010F
:1006F00022D4002FA6D100240020002357E79B1905
:1007000001250132590100D440E701213548194043
:100710005B0803400B43A7E7FF28A9D08021C90449
:100720000B43B6E7FF2A00D179E79B195B0859070D
:1007300000D02FE7DB08C1E70C00F71A82E7002B97
:100740002CD1002E93D180230024FF20DB032EE741
:1007500001259B1B18E719002025D140AA1A9340B8
:100760005A1E93410B4305009B1953E7002B00D100
:100770007EE7002E00D17CE78022D203914502D390
:10078000944500D23300DB0853E70C00F31A01351F
:10079000FAE6002EAFD00C0033008DE7002E00D11A
:1007A00067E78022D2039145EDD39445EBD20C004C
:1007B0003300E8E733007FE79B1900225901B9D5E0
:1007C000074A1340DB08012278E79B190132013503
:1007D00059019AD4DAE6031E8DD0DB086EE7C046D5
:1007E000FFFFFFFBFFFFFF7DF0B54F464646D646B5
:1007F0004402C0B547000E1C640A3F0EC50F002F0F
:100800003CD0FF2F42D00023802299469A46E40034
:10081000D20414437F3F73025B0A984673001B0E99
:10082000F60F002B1BD0FF2B13D042468021D200A5
:10083000C9041143884600207F3B2900FF1A4B461C
:100840007140C9B20F2B00D9B5E0744A9B00D35850
:100850009F464346002B3FD1FF3F023303E0434610
:10086000002B2DD1012329004A467140C9B21A43F9
:100870000E2A38D86A48920082589746002C13D125
:1008800004239946033B00279A46C4E7002C05D170
:1008900008239946063BFF279A46BCE70C23994656
:1008A000093BFF279A46B6E7200001F0F7FB7627C1
:1008B000431F9C4000237F4299469A463F1AAAE76D
:1008C000404601F0EBFB4246431F9A4076235B42D1
:1008D0001B1A90460020B0E703234A461A4391466C
:1008E0000320FC33A9E70D00FF200022C005ED071F
:1008F00010432843E0BCBA46B146A846F0BD0D00FF
:1009000000200022F2E75346022BEDD0032B33D018
:10091000A046012B05D100200022E7E7350003287F
:100920007AD03B007F33002B2DDD4246520707D0A3
:100930000F2241460A40042A02D004229446E04491
:100940004246120105D54246364B1A403B009046BE
:100950008033FE2BC8DC42469201520AD8B2C5E76A
:1009600080220025FF20D203C0E78022D203144258
:1009700002D04346134249D08022D203224352027E
:10098000FF20520AB2E70122D31A1B2BC3DC4246D6
:10099000DA4043469E37BB40591E8B411A435307EA
:1009A00004D00F231340042B00D00432530129D567
:1009B000012000229AE7424663015501AB4215D25D
:1009C0001B200022013F01261C0052005B00002C6E
:1009D00001DB9D4201D85B1B324301380028F3D173
:1009E000581E8341134398460D009AE71A200122AE
:1009F0005B1BE8E7023B5A4253415B423500002251
:100A0000D8B273E792010020520A6FE71A435202EC
:100A10003500FF20520A69E74446ADE7F8FC0008BC
:100A200038FD0008FFFFFFF770B542004E024C0092
:100A300045026D0A120EC30F760A240EC90FFF2A53
:100A400010D0FF2C0CD00120A2420AD1B54208D10F
:100A50008B420FD0002A04D12800431E984100E0A9
:100A6000012070BD0120FF2CFBD13543F9D14B4053
:100A70001800F6E70020F4E730B5420044024D02CA
:100A8000C30F4800640A120E6D0A000EC90FFF2A38
:100A900019D0FF280BD0002A1ED100280BD1002D21
:100AA00027D0002C34D100292FD0080030BD002DD4
:100AB00028D1002A01D1002CF5D08B4207D1002B80
:100AC00023D01800F2E7002C1CD1FF2814D0581EA8
:100AD000022318400138E9E70028F8D08B42F6D10C
:100AE0008242F4DCEBDBAC42F1D80020AC42DDD238
:100AF000E5E7002CDAD0EAE7002D03D18B42E6D1FE
:100B00000020D3E702204042D0E701204042CDE759
:100B10008B42E8D0DBE7C04630B5420044024D02CC
:100B2000C30F4800640A120E6D0A000EC90FFF2A97
:100B30001AD0FF280ED0002A1ED100280ED1002D79
:100B40002AD0002C0CD08B421DD0581E02231840F6
:100B5000013810E0002D0DD1002A20D1002C1ED12B
:100B6000002923D0080006E0002C03D1FF28ECD197
:100B7000002D17D0022030BD0028E6D08B42E4D1F2
:100B80008242E2DC04DBAC42DFD80020AC42F2D28D
:100B9000002B0BD01800EEE7002CECD0D5E78B42F1
:100BA000D3D1F5E700208B42E5D0CEE701204042CB
:100BB000E1E7C046F0B54F464646D64643025B0ADB
:100BC0004500C0B599460F1C2D0EC60F002D00D153
:100BD00088E0FF2D00D18DE08022DB00D2041A4393
:100BE0000023914698469A467F3D7C027B00640A2A
:100BF0001B0EFF0F002B68D0FF2B21D08022E400BA
:100C0000D204144342467F3B5B1900215D1C0A2A33
:100C10002EDC7E404246022A23DC013A012A00D91A
:100C2000BDE002296ED001292CD100200022C00590
:100C3000F60710433043E0BCBA46B146A846F0BDC3
:100C40002B00FF33002C65D00322414611433200B4
:100C5000013588467A40FF350A2900DDD8E01600C4
:100C60000321404601228240A620C000024220D03B
:100C70005346022B46D0032B00D1BBE051464C46D5
:100C80000129D2D02B007F33002B70DD620704D006
:100C90000F222240042A00D00434220103D5634BE2
:100CA0001C402B008033FE2B2CDCA201520AD8B250
:100CB000BDE790208000024227D1B938FF381042AA
:100CC0006DD03E00A1468A46D2E7002C41D10123D7
:100CD00042461A4390462B00424601215D1C0A2AD7
:100CE00097DDC5E7002B26D104239846033B00255A
:100CF0009A467AE7002B18D108239846063BFF2531
:100D00009A4672E7FF20002291E780220026FF200A
:100D1000D2038CE741460222013511438846FF3554
:100D20000A29A5DC02217E4074E70C239846093B82
:100D3000FF259A4659E7180001F0B0F94A46431FCB
:100D400076259A4000236D42914698469A462D1A80
:100D50004BE7200001F0A2F94246431F9C402B1AAA
:100D6000763B00215D1C0A2A00DC52E780E7012265
:100D7000D31A1B2B00DD58E79E352200AC40DA4029
:100D8000631E9C412243530704D00F231340042BBE
:100D900000D00432530137D50120002247E7210C4F
:100DA0004A462404240C2700100C1204120C44435D
:100DB0005743484351433A0C09195218944203D9F6
:100DC000802149028C4660443F0411043F0CC9193C
:100DD0008C01671EBC41120C890E12180C43920143
:100DE000144312010ED5012362081C40144349E745
:100DF0003E00A14680224B46D2031A435202FF20F6
:100E0000520A14E71D003DE792010020520A0EE746
:100E10000F29EDD180224B46D2031342EAD014426F
:100E2000E8D13E00FF20224301E7C046FFFFFFF765
:100E3000F8B54746CE464E0243024500720AC40F3B
:100E4000480080B594465F0A2D0E9B09000EC90F1D
:100E5000B609FF2824D0012251402A1A8C420FD013
:100E6000002A00DC6AE1002835D1002E00D1A2E082
:100E7000511E012A00D124E1FF2A21D00A002FE0CF
:100E8000002A00DC67E100285ED0FF2D18D0802109
:100E9000C9040E431B2A00DC76E02A00013332E04D
:100EA0002A00FF3A9146002E42D08C4255D04A4645
:100EB000002A00D19CE0002D00D177E00C00330027
:100EC000DB08002B00D16EE08022D20313435B02CB
:100ED000FF205B0A24E0FF2DF2D08021C9040E43DD
:100EE00001211B2A08DC31002020D140821A9640C3
:100EF0003200501E824111435B1A5A0160D407210F
:100F00002A00194057D00F211940042900D004337A
:100F1000590150D5501CFE2A45D09B01C0B25B0A36
:100F2000C0051843E4072043C0BCB946B046F8BD2D
:100F3000012251408C42BAD14A46002A10D0002DDD
:100F400000D198E00023BBE7002E34D0511E012AC7
:100F50006ED0FF2AB4D00A009CE7002A00D088E0B7
:100F6000FE206A1C104200D092E0002D00D0A4E0C8
:100F7000002B00D1CBE0002E00D0CAE00022DB081D
:100F80005B025B0AD0B2CBE731002020D140821A4D
:100F900096403200501E82410A439B185A01AED53A
:100FA0006A1CFE2D4AD1FF200023B9E7FF22002B47
:100FB0004BD10C003300DB08FF2A00D181E7DFE7CB
:100FC0009F01BF09380001F069F805388740854264
:100FD00021DC3B002021421B0132D3408A1A97407A
:100FE0007A1E974100223B43590700D08BE78FE7D9
:100FF000FE206A1C104212D1002D52D1002B7CD051
:10100000002EBBD09A1B500100D48BE0012400229B
:10101000F31A0C40E8E7564B2A1A3B40E4E79F1BC3
:101020007A0146D4002FCDD100240020002377E799
:101030009B1901250132590100D460E701214D4877
:1010400019405B0803400B43CEE7571E012A5AD0D4
:101050000C00FF2A33D001221B2F07DC2021C91BE3
:101060001A008B40FA40591E8B411A430500B31AEF
:1010700043E7002D23D1FF22002B9BD0511E012AD4
:10108000D6D0FF2A1BD01B292CDD0200731C3AE7A7
:10109000FF2A88D09B195B08590700D033E7DB088B
:1010A0006EE7002B10D1002E43D0012433000C40FA
:1010B00006E70124F71A0C4084E7002B04D1330023
:1010C000FEE601259B1B18E7002E00D1F8E68022E2
:1010D000D203974204D3944502D2012433000C403A
:1010E000DB08F1E61A002025CA40691A8B40591E18
:1010F0008B41134305009B1950E7002E94D0012427
:1011000033000C403AE70C000125F31AF5E63300F2
:1011100034E79B1900225901C1D5154A1340DB0859
:1011200001222DE7002A00D17EE713000022DB0810
:1011300026E780230024FF20DB03F1E6002A00D10C
:1011400056E7471B3A00002D00D130E78022D20439
:101150000C0013437FE7002A00D101E7411B002D5B
:1011600001D10A0088E78022D20413438BE7C046EE
:10117000FFFFFFFBFFFFFF7D41024200C30F490A53
:101180000020120E7E2A03DD9D2A02DD094A9818EE
:101190007047802000040143952A07DC9620821ABC
:1011A000D1404842002BF3D10800F1E7963A914034
:1011B000F7E7C046FFFFFF7F70B5002813D0C317C5
:1011C000C5185D40C40F280000F068FF9E23010091
:1011D0001B1A962B0FDC082834D008398D406D027D
:1011E0006D0AD8B202E0002400200025C005284383
:1011F000E407204370BD992B16DC421F052800D060
:1012000095402A00114802406E0709D00F2635404C
:10121000042D05D00432550102D59F2302405B1AEC
:101220009201550AD8B2E1E70522121A2800D040EF
:10123000020008001B3085402800451EA8410243DB
:101240001500DEE76D0296206D0ACFE7FFFFFFFB7A
:10125000F0B55746DE464E464546E0B51F000B0347
:101260001B0B16009A46CA0F4B000400934687B02A
:101270005B0D00D1D5E0BB4A934200D1F8E0514666
:10128000420FC9000A43802109041143C20091465C
:10129000B54A8A469D180023984602933C037B007A
:1012A000FA0F3000240B5B0D009200D196E0AD4A9E
:1012B000934231D0720FE40022438024240414436B
:1012C000A94AF000944663445B195A1C01924246B5
:1012D00000260A2A42DC5A4600994A409346424672
:1012E000022A32DC013A012A00D949E1022E00D15A
:1012F000CAE0012E3DD100230024002210005A46EE
:101300001B052343D2071343190007B0F0BCBB46AB
:10131000B246A946A046F0BD924B2643EB18002EDC
:1013200000D1BBE00322414611435A46884600994A
:101330004A40802109018C462900614401914146BF
:101340000A2900DD33E293460326424601279740EF
:10135000A6213A00C9000A400F4231D0029E022E57
:1013600000D135E2032E00D1D2E154464846012E89
:10137000C1D0019A7D4B94466344002B00DCC0E051
:10138000420709D00F220240042A05D0021D8242E2
:101390008041404224181000E20106D5744B019AA6
:1013A0001C4080239446DB006344724A93426BDC0A
:1013B0006207C00864025B050243240B5B0D9DE7D6
:1013C000902189000F4263D188223A4200D1D7E0B0
:1013D000009BA2469B4681460296BFE7230033430B
:1013E00000D17FE0002C00D1ADE1200000F056FEDE
:1013F000020003000B3A1D201900821A3000083940
:10140000D0408C400443300088405B4AEB1A94463D
:1014100063445A1C0192424600260A2A00DC5AE71D
:101420009CE753460343994654D05346002B00D1C2
:1014300077E1504600F032FE0B235B429C460200EF
:10144000844411005046083988401D238046604678
:101450001B1A2000D8400300404603439A4623004D
:101460008B4099460023444D9846AD1A029315E7E8
:1014700052460243914626D100221D000223924685
:1014800008329046029309E700240022354B35E7E5
:10149000002380249B462403324B2FE7022241463F
:1014A00011438022120194462A0062448846019228
:1014B0000A2900DD52E75A460020009904004A40FC
:1014C000934602260BE70C221D000323814690461B
:1014D0000293E3E600239A4604339846033B002533
:1014E0000293DBE6424601331A432B0090465A1C16
:1014F000019242460024002001260A2A00DCEAE686
:101500002CE70122D21A382A00DDF4E61F2A00DC7B
:101510002AE11F214942CB1A2100D9400B00202A81
:1015200005D0164A019D94466544AC402043421EB6
:1015300090411843072319000024014003420CD0B6
:101540000F230340042B00D140E1031D8342A4413B
:101550001800644261076402240BC20800230A4396
:10156000CCE6C046FF07000001FCFFFFFF030000C0
:10157000FFFFFFFEFE0700000DFCFFFF3E04000022
:1015800049464A460904090C0D00160C020C0004D9
:10159000000C4543AC4605007543A84615000F00F6
:1015A0007543009202952A00009D6F4365462D0CFD
:1015B000A94647444F44B84505D915008022520238
:1015C0009046454402953D0C039565462D043F0425
:1015D0002D0CAC463D0065440495250C2404240CD8
:1015E000AC4625007543A84665460F006943414453
:1015F00089466743390C49446E43884503D98022A4
:101600005202904646440D0CA846350045440595C7
:10161000039D3F04A8463F0C0904C9198844454668
:10162000039555462E04360C2F0C35004543784360
:1016300081463800A8462D0CAA46009A50437243B2
:101640004A445244914503D980256D02A946484435
:10165000150CA94645462D042D0CA84665467D432C
:10166000120448449044A9463200654662436E43E2
:101670007C43170C3619BF19BC4203D9802464027D
:10168000A446E144029C039EA446059D66448E4206
:101690008941AC4612043C04120CA218624449422F
:1016A00054184644A4464645A44182466442A04696
:1016B000AA4292418C458941E244D0444942524277
:1016C0000A43A045A44182458941644249420C43F2
:1016D00041463F0CD2191219CC0D049970020843EF
:1016E000411E884141464A44F60D520230434902A8
:1016F00014430843D20135D5012243080240134365
:10170000E0071843640834E6009BA2469B468146E6
:101710008024534624031C4324034A462E4B240BA7
:10172000ECE500F0BBFC15239C46844402006346B4
:1017300020321C2B00DC84E6002399462300083865
:1017400083409A468EE600F0A9FC020003001532A1
:1017500020331C2A00DC4EE602003400083A002048
:10176000944052E6019304E61C4B21009C46030082
:10177000019DD3406544A94019430300AB40581E66
:10178000834119430800D4404B0709D00F230B4075
:10179000042B05D00B1D8B428041404224181800B9
:1017A000230200D4D6E6012300240022A6E50F2957
:1017B000AAD1802352461B031A42A9D01C42A7D1AA
:1017C0001C43009B02009B46034B97E50024C1E6A7
:1017D0000024014B220091E5FF0700001E040000D9
:1017E000F0B54E464546DE465746E0B585B000901A
:1017F00001910C034F00CE0F610A009CB046640FAC
:101800000C4300997F0DC80011001A001B039C4671
:101810000091019251004B0D9946019B009DD90FFB
:1018200063466A0F5B0A1343EA0094469346C14A33
:1018300003900293914500D1CDE0012569404D46CA
:101840007D1BAA468E4200D180E0002D00DC35E3EE
:101850004946002900D1DFE0974200D194E1524689
:101860000125382A19DC8022029B120413430293BB
:1018700052461F2A00DDE3E1534620226146029DC5
:10188000D21A9540D9400D43614691400A00511E3D
:101890008A411543029ADA40A41A451BA8428041A6
:1018A0004042241A230200D43DE16402640A002C61
:1018B00000D147E1200000F0F1FB0300083B2021AC
:1018C0002800CA1AD0409C4002009D4022439F42FB
:1018D00000DD77E1D81B0130091A2C008D40C4408F
:1018E0006B1E9D411300C2408B402543002714000E
:1018F0001D436B0709D00F232B40042B05D02B1D54
:10190000AB42AD416D4264191D00230200D440E199
:10191000884A0137974200D101E1012643468649B2
:10192000ED0821404A072A437C054D022D0B640D2A
:101930001E4024052C43F60734431000210005B057
:10194000F0BCBB46B246A946A046F0BD002D00DC67
:10195000D0E24946002900D0D4E06146029B1943F9
:1019600000D12BE1691E012D00D1D9E1954200D1B2
:101970000AE10125382917DC8A4653461F2B00DD72
:10198000E7E12022D21A029B614693401D00534694
:10199000D940634693401A000D43511E8A41534675
:1019A0001543029ADA40A4182D188542804140421E
:1019B0002418230200D4B6E05E4B01379F4200D1C9
:1019C000ADE001215C4B6A081C4029400A43E50751
:1019D000154364088DE7594A029B92466246BA4411
:1019E0001A432CD08E422ED05246002A60D0002FAF
:1019F00000D1DBE063460E00029CD8086207024378
:101A0000E4081300234300D154E280252D0325432D
:101A10002D03484C2D0B8CE76146029B194300D1E6
:101A2000CCE029000139012D00D188E1954200D197
:101A3000AAE00125382900DD2FE78A4618E70122B0
:101A400051408E42D0D15346002B00D1BEE0002F32
:101A500000D038E1CA462200024300D1E2E15346F9
:101A6000591E012B00D10DE2324A924500D1D2E13C
:101A70000127382913DC1F2900DDEEE12022029B1B
:101A8000521A250007009A46CC4090409540CF401E
:101A9000A244421E904153462F43074302933D0008
:101AA000654465459241029B52424F46D41880E7F7
:101AB000234A7D1C154200D0AAE062462500029B05
:101AC00005431A43002F00D0F5E0002D00D16BE153
:101AD000002A00D152E16346C51A029BE21AA842CD
:101AE0009B415B42D31A1A0200D4D5E163461D1A0A
:101AF000AC4592410126029B52421C1B8846A41A07
:101B00000E40F6E697423FD052460125382A00DDC6
:101B10004AE78022029B1204134302932DE73C0004
:101B20000025002205E707232B40002B00D0E2E62A
:101B30006BE0C046FF070000FFFF7FFF01F8FFFFDB
:101B4000FE070000280000F0A9FA030018331F2B3D
:101B500000DCB4E62A00083882409F4200DDB9E08C
:101B6000DB1B581C1F2800DCA0E115001F3BDD40DB
:101B7000202805D040231B1A9A40531E9A41154332
:101B8000072300272B40D0E7C00862070243E40880
:101B900037E7EA0863071A43D34BE4089F4200D1B2
:101BA0002FE72403250B7C05640DC2E6CA462200FC
:101BB000024358D163460E00029C0393039B574691
:101BC000DA08E7E7C94CFF1A144092E6C84D7A1CC0
:101BD0002A4200D084E022000243002F00D0EFE030
:101BE000002A00D1E5E0624602990A4300D1C5E02F
:101BF0006346C5188C46854280416444404224189F
:101C0000230202D5B94B01371C40BA460395D5E7EC
:101C10006246851AA842924152429146029BE31ABB
:101C20001A004B46D21A130091461A026CD44A4647
:101C30004C462A4300D03AE600260024002578E6E8
:101C4000029953460D00203AD540202B06D0402261
:101C5000D21A0B00934062461A4393465B465A1EC3
:101C600093411D4319E653465A1E012B00D1C6E08D
:101C70009D4EB24500D1BDE688460E000125382AAA
:101C800010DC1F2A7FDC20212500891A07008840EC
:101C90008D40D740D440411E8841029B3D431B1BD1
:101CA000054302936246551BAC459241029B52424A
:101CB0004F469C1AF6E5002D00D0B7E0002A00D16F
:101CC000F0E001260E4063460298D90842070A4315
:101CD000C40896E6854CFF1A14406207E40860E7E2
:101CE00081498A4200D1C9E06346C11881428041DE
:101CF000029B4042E3181B18DD075C0807234908D4
:101D00000D4317002B4010E763461D1AAC45924166
:101D10000126029B52421C1B8846A41A0E40C6E5AF
:101D20006346C518029B854280419C4640426444FC
:101D300024180127230200D4F5E6022741E6634672
:101D4000C51AA8428041029B4042E41A0127241A86
:101D5000A8E5029D52462B00203AD3401900534675
:101D6000202B06D04022D21A2B00934062461A4301
:101D700093465D466B1E9D410D4315E66207C00804
:101D80000243E4080DE7110027002039CF40202A44
:101D900005D040218A1A9440250005430395039DF0
:101DA0006A1E95413D437DE7002A00D144E70126A4
:101DB0000E406346D908029B5A070A43DC08F0E646
:101DC000002A28D06246029FC0083A4300D1DCE6D0
:101DD000620710438022E4081203144209D0FD0870
:101DE000154206D1634601262C00D8087B0718430C
:101DF0000E40420FC000C0085207024301E663468E
:101E00001D1AAC459241029B52421C1B0E00884693
:101E10000127A41A46E56346D908029B5A070A43DC
:101E2000DC08EEE56346029C0393C7E6C008002A7F
:101E300000D1AAE6620710438022E408120314428C
:101E4000D7D0029FFD081542D3D163460126D8089A
:101E50007B072C0018430E40CBE70A002700203AEE
:101E6000D740202905D04022521A9440250005432E
:101E70000395039D6A1E95412F4310E6140000252B
:101E8000002256E5029B60449946604592414C44CD
:101E900052420500A4184CE71A001C002A4300D047
:101EA000B3E6C9E6802400262403AEE52021002500
:101EB000091A17E5002200250B4C3AE5002D00D148
:101EC000F6E54B46DA1B9246002F00D16FE6382A22
:101ED00005DC80263604344388460E00D1E6884669
:101EE0000E000125DEE6C046FF070000FFFF7FFF72
:101EF000FE070000002D00D168E64B46D91B002FDD
:101F000001D18A46A7E50127382900DDC7E58022EF
:101F100012041443AFE5C0460B00020070B5164D25
:101F20000C0382B04900002000920193240B490D5C
:101F3000DE0FA94204DD1148814203DD104BF01889
:101F400002B070BD8020400320430E4C641A1F2C49
:101F500008DD0D4B5B1AD84003005842002EEFD12C
:101F60001800EDE7094B009A9C46030061448B4042
:101F7000E2401343F1E7C046FE0300001D040000E9
:101F8000FFFFFF7F3304000013040000EDFBFFFFA1
:101F900070B542024300C40FFE201B0E591C550AA7
:101FA00008420CD0E02189008C466D07120B634477
:101FB0001B051343E40723432800190070BD002BC1
:101FC00014D1002D1BD0280000F068F80A281CDC72
:101FD0000B232A001B1ADA40030015339D400E4BD9
:101FE00012031B1A5B05120B5B0DE1E7002D09D0F4
:101FF000130B802212031A436D07084BD8E7002306
:102000000022D5E70022054BD2E703002A000B3B54
:102010009A400025E3E7C04689030000FF0700005F
:102020008446100062468C461900634600E0C046B4
:102030001FB500F009F9002801D40021C8421FBDD6
:1020400010B500F049F84042013010BD10B500F065
:10205000FBF8002801DB002010BD012010BDC046A8
:1020600010B500F0F1F8002801DD002010BD0120BE
:1020700010BDC04610B500F073F8002801DC002048
:1020800010BD012010BDC04610B500F069F8002851
:1020900001DA002010BD012010BDC0461C21012323
:1020A0001B04984201D3000C10391B0A984201D33B
:1020B000000A08391B09984201D30009043902A219
:1020C000105C40187047C046040302020101010180
:1020D0000000000000000000F0B55746DE464E4606
:1020E0004546E0B50D000400E80F83460903D80F0C
:1020F000090B824619488C461F0369005E00490D92
:102100003F0B760D814218D086420FD00120B1429C
:102110000DD1BC450BD1944209D1D3451CD0002927
:1021200005D160462043431E984100E00120F0BCE9
:10213000BB46B246A946A046F0BD01208E42F6D16C
:10214000614639430F0017432743F0D15B4652469F
:10215000981A431E9841EAE70020E8E7FF070000CD
:10216000F0B557464E464546DE46E0B50D000F0336
:10217000390B83B00400804601915800E90F314FBC
:10218000400D8C466E00190382469146760D090B70
:10219000D80FBE421FD0BA450FD0002E2FD15546C2
:1021A000019E3443002D27D10A433AD0002C45D15B
:1021B00000281AD10120404217E011433BD1002EE4
:1021C00002D1019F2743F3D0844509D16346002BF8
:1021D000F0D0604609E0019F27432CD1B24524D0BE
:1021E00063460220013B1840013803B0F0BCBB46F7
:1021F000B246A946A046F0BD002CD9D0E4E754462B
:10220000002CEDD08445EBD15645E9DCDEDB019BAB
:102210008B42E5D8DAD1C845E2D80020C845E4D2DF
:10222000D4E70020002CE0D0DAE7114303D1844545
:10223000D6D10020D9E702204042D6E78445E6D037
:10224000CEE7C046FF070000F0B557464E4645466C
:10225000DE46E0B50D000F0304008046E80F390BA1
:10226000844683B05800304F400D01911E03690031
:1022700082469146490D360BD80FB94220D0BA4557
:102280000FD000292BD101990C435146002937D199
:10229000324338D0002C44D1002819D101204042CB
:1022A00016E0164313D1002902D1019F2743F3D032
:1022B000844520D063460220013B1840013807E0E6
:1022C000019F274303D18A45F4D116431FD0022032
:1022D00003B0F0BCBB46B246A946A046F0BD54468A
:1022E000002CE7D08445E5D15145E3DC03DB019BBD
:1022F000B342DFD80FD06346002BCFD06046E7E76C
:10230000002CC9D0D4E70020002CE1D0D2E78445CE
:10231000D0D10020DCE7C845CCD80020C845D7D2B2
:10232000E9E78445E3D0C5E7FF07000080B500AFCB
:10233000074B1A68064B10210A431A60002000F070
:1023400009F80CF0F5FB00231800BD4680BDC0461F
:102350000020024090B583B000AF7860144B1C6839
:10236000144B1B781900FA239800FDF7CDFE0300EB
:1023700019002000FDF7C8FE0300180000F053F913
:10238000031E01D001230FE07B68032B0BD8796873
:1023900001235B420022180000F00CF9064B7A681A
:1023A0001A60002300E001231800BD4603B090BD71
:1023B00008000020040000200000002080B500AFCD
:1023C000054B1B781A00054B1B68D218034B1A608B
:1023D000C046BD4680BDC046040000202800002045
:1023E00080B500AF024B1B681800BD4680BDC046DB
:1023F0002800002080B582B000AF0200FB1D1A70DB
:10240000FB1D1B787F2B09D8FB1D1B781A001F238F
:102410001A40044B012191400A001A60C046BD4693
:1024200002B080BD00E100E080B582B000AF0200E4
:10243000FB1D1A70FB1D1B787F2B10D8FB1D1B7812
:102440001A001F231340084901229A4013008022DA
:102450008B50BFF34F8FC046BFF36F8FC046C0464F
:10246000BD4602B080BDC04600E100E090B583B03B
:1024700000AF02003960FB1D1A70FB1D1B787F2B1B
:1024800028D82F4AFB1D1B785BB29B08C0339B00EA
:102490009B58FA1D1278110003220A40D200FF2136
:1024A00091400A00D2431A4011003B689B01FF2271
:1024B0001A40FB1D1B78180003230340DB009A40E1
:1024C0001F48FB1D1B785BB29B080A43C0339B006F
:1024D0001A5031E01B4AFB1D1B7819000F230B40DB
:1024E000083B9B0806339B00D31804331B68FA1D76
:1024F0001278110003220A40D200FF2191400A0005
:10250000D2431A4011003B689B01FF221A40FB1D79
:102510001B78180003230340DB009A400948FB1D89
:102520001B781C000F232340083B9B080A430633FB
:102530009B00C31804331A60C046BD4603B090BD6B
:1025400000E100E000ED00E080B500AFBFF34F8F89
:10255000C046044B044ADA60BFF34F8FC046C04602
:10256000FDE7C04600ED00E00400FA0580B582B04A
:1025700000AF78607B685A1E80235B049A4201D3C7
:10258000012310E00A4B7A68013A5A6001235B424A
:1025900003211800FFF76AFF054B00229A60044BE5
:1025A00007221A6000231800BD4602B080BDC04655
:1025B00010E000E080B584B000AFB9607A600F2110
:1025C0007B18021C1A70BA687B181B785BB211006A
:1025D0001800FFF74BFFC046BD4604B080BD80B574
:1025E00082B000AF0200FB1D1A70FB1D1B785BB2AE
:1025F0001800FFF7FFFEC046BD4602B080BD80B5A3
:1026000082B000AF0200FB1D1A70FB1D1B785BB28D
:102610001800FFF709FFC046BD4602B080BD80B577
:1026200000AFFFF791FF80B582B000AF78607B68A4
:102630001800FFF79BFF03001800BD4602B080BDE5
:1026400080B584B000AF78600023FB607B68002B0E
:1026500001D1012336E07B682122022199547B6855
:102660001B681B68FB60FB68184A1340FB607B68B3
:102670005A687B689B681A437B68DB681A437B68EF
:102680001B691A437B685B691A437B689B691A4321
:102690007B68DB691343FA681343FB607B681B6844
:1026A000FA681A607B68180000F0C4F97B680022A1
:1026B0009A637B682122012199547B6820220021A2
:1026C000995400231800BD4604B080BD0FC0FFFF21
:1026D00080B586B000AFF860B9607A603B601723C0
:1026E000FB1800221A70FB6820229B5C012B01D191
:1026F00002234FE0FB68202201219954FB6821222C
:102700009B5CDBB2012B3AD1FB6821220221995458
:10271000FB6800229A63FB681B681A68FB681B68E9
:1027200001218A431A603B687A68B968F86800F04A
:1027300054F9FB68DB6A002B08D0FB681B681A6839
:10274000FB681B680E210A431A600FE0FB681B68D8
:102750001A68FB681B680A210A431A60FB681B6839
:102760001A68FB681B6804218A431A60FB681B68AF
:102770001A68FB681B6801210A431A6007E0FB68BE
:102780002022002199541723FB1802221A701723C4
:10279000FB181B781800BD4606B080BD80B582B01E
:1027A00000AF78607B6821229B5CDBB2022B08D0F3
:1027B0007B6804229A637B682022002199540123BC
:1027C00020E07B681B681A687B681B680E218A43BF
:1027D0001A607B681B681A687B681B6801218A4342
:1027E0001A607B681A6C7B68DB6B012191400A00E0
:1027F0005A607B682122012199547B6820220021A4
:10280000995400231800BD4602B080BD80B584B045
:1028100000AF78600F217B1800221A707B6821229C
:102820009B5CDBB2022B06D07B6804229A637B1888
:1028300001221A7028E07B681B681A687B681B6895
:102840000E218A431A607B681B681A687B681B68C4
:1028500001218A431A607B681A6C7B68DB6B01215B
:1028600091400A005A607B682122012199547B68BB
:102870002022002199547B685B6B002B04D07B687D
:102880005B6B7A68100098470F23FB181B781800C1
:10289000BD4604B080BD80B584B000AF78607B6871
:1028A000DB6B1B68FB607B681B681B68BB607B681D
:1028B0001B6C04229A401300FA68134024D0BB68B2
:1028C0000422134020D07B681B681B682022134021
:1028D00007D17B681B681A687B681B6804218A43E0
:1028E0001A607B681A6C7B68DB6B042191400A00DC
:1028F0005A607B68DB6A002B00D16AE07B68DB6A88
:102900007A681000984764E07B681B6C02229A404A
:102910001300FA6813402BD0BB680222134027D063
:102920007B681B681B68202213400BD17B681B68E7
:102930001A687B681B680A218A431A607B68212217
:10294000012199547B681A6C7B68DB6B02219140F2
:102950000A005A607B682022002199547B689B6A98
:10296000002B36D07B689B6A7A681000984730E06D
:102970007B681B6C08229A401300FA68134028D029
:10298000BB680822134024D07B681B681A687B68E8
:102990001B680E218A431A607B681A6C7B68DB6BAC
:1029A000012191400A005A607B6801229A637B688A
:1029B0002122012199547B682022002199547B68AF
:1029C0001B6B002B05D07B681B6B7A681000984747
:1029D000FFE7C046BD4604B080BD80B584B000AFFF
:1029E000F860B9607A603B60FB681A6CFB68DB6B6F
:1029F000012191400A005A60FB681B683A685A60DE
:102A0000FB685B68102B08D1FB681B687A689A60CA
:102A1000FB681B68BA68DA6007E0FB681B68BA6885
:102A20009A60FB681B687A68DA60C046BD4604B0ED
:102A300080BD000080B582B000AF78607B681B6805
:102A4000084A9446634414211800FDF75DFB030017
:102A50009A007B681A647B68034ADA63C046BD4605
:102A600002B080BDF8FFFDBF0000024080B586B017
:102A700000AF7860396000237B614FE13B681B68E1
:102A800001217A6991400A001340FB60FB68002B2A
:102A900000D140E13B685B6803221340012B05D065
:102AA0003B685B6803221340022B30D17B689B6834
:102AB0003B617B695B0003229A401300DA433B6968
:102AC00013403B613B68DA687B695B009A40130006
:102AD0003A6913433B617B683A699A607B685B683B
:102AE0003B6101227B699A401300DA433B69134042
:102AF0003B613B685B681B0901221A407B699A4075
:102B000013003A6913433B617B683A695A603B683A
:102B10005B6803221340032B17D07B68DB683B61A3
:102B20007B695B0003229A401300DA433B69134040
:102B30003B613B689A687B695B009A4013003A6985
:102B400013433B617B683A69DA603B685B68032248
:102B50001340022B23D17B69DA087B68083292008C
:102B6000D3583B617B69072213409B000F229A4098
:102B70001300DA433B6913403B613B681A697B6988
:102B800007210B409B009A4013003A6913433B61B5
:102B90007B69DA087B68083292003969D1507B681A
:102BA0001B683B617B695B0003229A401300DA4398
:102BB0003B6913403B613B685B6803221A407B69B9
:102BC0005B009A4013003A6913433B617B683A69A2
:102BD0001A603B685A68C0239B02134000D19AE0F8
:102BE000544B9A69534B01210A439A61514B9B699B
:102BF00001221340BB60BB684F4A7B699B080233CC
:102C00009B009B583B617B69032213409B000F2272
:102C10009A401300DA433B6913403B617A68902382
:102C2000DB059A4213D07B68444A93420DD07B68FF
:102C3000434A934207D07B68424A934201D103231F
:102C400006E0052304E0022302E0012300E0002364
:102C50007A6903210A40920093403A6913433B6129
:102C600035497B699B0802339B003A695A50364BC1
:102C70001B683B61FB68DA433B6913403B613B687F
:102C80005A6880235B02134003D03A69FB68134300
:102C90003B612D4B3A691A602B4B5B683B61FB68CB
:102CA000DA433B6913403B613B685A6880239B02CF
:102CB000134003D03A69FB6813433B61224B3A69E6
:102CC0005A60214B9B683B61FB68DA433B691340C8
:102CD0003B613B685A6880235B03134003D03A6929
:102CE000FB6813433B61184B3A699A60164BDB68EB
:102CF0003B61FB68DA433B6913403B613B685A68C0
:102D000080239B03134003D03A69FB6813433B6164
:102D10000D4B3A69DA607B6901337B613B681A6865
:102D20007B69DA40131E00D0A8E6C046C046BD4607
:102D300006B080BD001002400000014000040048C1
:102D400000080048000C00480004014080B586B02F
:102D500000AF7860396000237B61B1E001227B69BC
:102D60009A403B6813403B613B69002B00D1A4E0D3
:102D7000594A7B699B0802339B009B58FB607B6927
:102D8000032213409B000F229A40FB681340FB6014
:102D90007A689023DB059A4213D07B684F4A9342AE
:102DA0000DD07B684E4A934207D07B684D4A9342D0
:102DB00001D1032306E0052304E0022302E00123FE
:102DC00000E000237A6903210A4092009340FA68E8
:102DD0009A4232D1444B1A683B69D943424B0A406C
:102DE0001A60414B5A683B69D9433F4B0A405A60CD
:102DF0003D4B9A683B69D9433B4B0A409A603A4B3A
:102E0000DA683B69D943384B0A40DA607B690322B0
:102E100013409B000F229A401300FB602E4A7B69EF
:102E20009B0802339B009A58FB68D9432A487B6968
:102E30009B080A4002339B001A507B681B687A6922
:102E40005200032191400A00D2431A407B681A6065
:102E50007B69DA087B6808329200D3587A690721C7
:102E60000A4092000F2191400A00D1437A69D208AA
:102E700019407B6808329200D1507B68DB687A6920
:102E80005200032191400A00D2431A407B68DA6065
:102E90007B685B6801217A6991400A00D2431A403D
:102EA0007B685A607B689B687A6952000321914075
:102EB0000A00D2431A407B689A607B6901337B61C8
:102EC0003A687B69DA40131E00D047E7C046C04627
:102ED000BD4606B080BDC046000001400004004869
:102EE00000080048000C00480004014080B584B090
:102EF00000AF78600A00BB1C1A807B681B69BA1C93
:102F00001288134004D00F23FB1801221A7003E02B
:102F10000F23FB1800221A700F23FB181B781800D0
:102F2000BD4604B080BD000080B582B000AF020095
:102F3000BB1D1A80094B5B69BA1D1288134008D06B
:102F4000064BBA1D12885A61BB1D1B88180007F07A
:102F50000BFAC046BD4602B080BDC0460004014029
:102F600080B588B000AF78607B68002B01D1012369
:102F700001E37B681B680122134000D18DE0C34B45
:102F80005B680C221340042B0ED0C04B5B680C22F4
:102F90001340082B16D1BD4B5A6880235B021A40A0
:102FA00080235B029A420DD1B84B1A6880239B02A2
:102FB000134000D170E07B685B68002B00D06BE0B1
:102FC0000123D8E27B685B68012B07D1AF4B1A68FD
:102FD000AE4B802149020A431A602FE07B685B6890
:102FE000002B0CD1A94B1A68A84BA9490A401A60BA
:102FF000A64B1A68A54BA7490A401A601EE07B68D9
:103000005B68052B0ED1A14B1A68A04B8021C90229
:103010000A431A609D4B1A689C4B802149020A435F
:103020001A600BE0994B1A68984B99490A401A604C
:10303000964B1A68954B97490A401A607B685B6803
:10304000002B14D0FFF7CCF90300BB6108E0FFF7B9
:10305000C7F90200BB69D31A642B01D903238AE2A2
:103060008A4B1A6880239B021340F0D015E0FFF7CB
:10307000B7F90300BB6108E0FFF7B2F90200BB69D2
:10308000D31A642B01D9032375E2804B1A6880237D
:103090009B021340F0D100E0C0467B681B6802220F
:1030A000134000D169E0794B5B680C2213400BD0D0
:1030B000764B5B680C221340082B1CD1734B5A686B
:1030C00080235B02134016D1704B1B680222134011
:1030D00005D07B68DB68012B01D001234BE26B4BF1
:1030E0001B68F822934319007B681B69DA00674B61
:1030F0000A431A6041E07B68DB68002B24D0634BF5
:103100001A68624B01210A431A60FFF769F903004C
:10311000BB6108E0FFF764F90200BB69D31A022B18
:1031200001D9032327E2594B1B6802221340F1D037
:10313000564B1B68F822934319007B681B69DA0021
:10314000524B0A431A6018E0504B1A684F4B01214A
:103150008A431A60FFF744F90300BB6108E0FFF7F8
:103160003FF90200BB69D31A022B01D9032302E203
:10317000464B1B6802221340F1D17B681B68082272
:10318000134036D07B68DB69002B19D03F4B5A6A5D
:103190003E4B01210A435A62FFF722F90300BB614B
:1031A00008E0FFF71DF90200BB69D31A022B01D911
:1031B0000323E0E1354B5B6A02221340F1D018E0B3
:1031C000324B5A6A314B01218A435A62FFF708F9A0
:1031D0000300BB6108E0FFF703F90200BB69D31AE3
:1031E000022B01D90323C6E1284B5B6A022213405C
:1031F000F1D17B681B680422134000D1B4E01F208A
:103200003B1800221A70214BDA6980235B051340BA
:1032100010D11E4BDA691D4B802149050A43DA6142
:103220001A4BDA6980235B051340FB60FB683B188F
:1032300001221A70184B1A6880235B0013401AD1C0
:10324000154B1A68144B802149000A431A60FFF796
:10325000C7F80300BB6108E0FFF7C2F80200BB69D2
:10326000D31A642B01D9032385E10B4B1A68802301
:103270005B001340F0D07B689B68012B0ED1034BA1
:103280001A6A024B01210A431A6235E0001002401B
:10329000FFFFFEFFFFFFFBFF007000407B689B68A5
:1032A000002B0CD1B64B1A6AB54B01218A431A6226
:1032B000B34B1A6AB24B04218A431A621CE07B6842
:1032C0009B68052B0CD1AE4B1A6AAD4B04210A4307
:1032D0001A62AB4B1A6AAA4B01210A431A620BE02D
:1032E000A74B1A6AA64B01218A431A62A44B1A6A99
:1032F000A34B04218A431A627B689B68002B14D07D
:10330000FFF76EF80300BB6109E0FFF769F8020000
:10331000BB69D31A9B4A934201D903232BE1984BF3
:103320001B6A02221340F0D013E0FFF759F80300A4
:10333000BB6109E0FFF754F80200BB69D31A914A58
:10334000934201D9032316E18D4B1B6A02221340DD
:10335000F0D11F23FB181B78012B05D1884BDA69AC
:10336000874B89490A40DA617B681B681022134049
:1033700063D07B685B69012B2AD1814B5A6B804BF0
:1033800004210A435A637E4B5A6B7D4B01210A4349
:103390005A63FFF725F80300BB6108E0FFF720F848
:1033A0000200BB69D31A022B01D90323E3E0744B5B
:1033B0005B6B02221340F1D0714B5B6BF82293439D
:1033C00019007B689B69DA006D4B0A435A6334E04D
:1033D0007B685B69053311D1694B5A6B684B0421DB
:1033E0008A435A63664B5B6BF822934319007B68F0
:1033F0009B69DA00624B0A435A631EE0604B5A6BCA
:103400005F4B04210A435A635D4B5A6B5C4B0121AD
:103410008A435A63FEF7E4FF0300BB6108E0FEF74E
:10342000DFFF0200BB69D31A022B01D90323A2E0FC
:10343000534B5B6B02221340F1D17B681B6A002B5C
:1034400000D197E04E4B5B680C221340082B00D153
:103450006BE07B681B6A022B4CD1494B1A68484BC6
:103460004A490A401A60FEF7BBFF0300BB6108E04F
:10347000FEF7B6FF0200BB69D31A022B01D9032362
:1034800079E03F4B1A6880239B041340F0D13C4BFA
:10349000DB6A0F22934319007B68DA6A384B0A43D0
:1034A000DA62374B5B683A4A134019007B689A6AC4
:1034B0007B685B6A1A43324B0A435A60304B1A6886
:1034C0002F4B802149040A431A60FEF789FF03004D
:1034D000BB6108E0FEF784FF0200BB69D31A022B30
:1034E00001D9032347E0264B1A6880239B0413402D
:1034F000F0D03FE0224B1A68214B24490A401A6061
:10350000FEF76EFF0300BB6108E0FEF769FF0200F3
:10351000BB69D31A022B01D903232CE0184B1A687C
:1035200080239B041340F0D124E07B681B6A012BAD
:1035300001D101231FE0124B5B687B61104BDB6AFA
:103540003B617A6980235B021A407B685B6A9A421E
:103550000ED13B690F221A407B68DB6A9A4207D181
:103560007A69F0239B031A407B689B6A9A4201D0D8
:10357000012300E000231800BD4608B080BDC0460E
:103580000010024088130000FFFFFFEFFFFFFFFE67
:10359000FFFFC2FF80B584B000AF786039607B6800
:1035A000002B01D10123B3E05B4B1B6801221340C8
:1035B0003A689A4211D9584B1B680122934319006B
:1035C000554B3A680A431A60534B1B68012213405B
:1035D0003A689A4201D001239AE07B681B68022274
:1035E000134015D07B681B680422134006D04B4B58
:1035F0005A684A4BE021C9000A435A60474B5B684E
:10360000F022934319007B689A68444B0A435A603E
:103610007B681B680122134040D07B685B68012BEC
:1036200007D13E4B1A6880239B02134014D101231B
:103630006EE07B685B68022B07D1384B1A688023E9
:103640009B04134008D1012362E0344B1B68022223
:10365000134001D101235BE0304B5B6803229343AD
:1036600019007B685A682D4B0A435A60FEF7B8FE72
:103670000300FB6009E0FEF7B3FE0200FB68D31A0B
:10368000274A934201D9032342E0244B5B680C2272
:103690001A407B685B689B009A42ECD11E4B1B680A
:1036A000012213403A689A4211D21B4B1B68012237
:1036B00093431900184B3A680A431A60164B1B686B
:1036C000012213403A689A4201D0012320E07B682E
:1036D0001B680422134009D0104B5B68114A134049
:1036E00019007B68DA680D4B0A435A6000F020F835
:1036F00001000A4B5B681B090F2213400A4AD35C86
:103700000A00DA40094B1A600020FEF723FE00236E
:103710001800BD4604B080BD0020024000100240E9
:1037200088130000FFF8FFFF78FF00080800002062
:1037300090B58FB000AF1423FB182B4A13CA13C3E4
:1037400012681A603B1D294A13CA13C312681A6013
:103750000023FB620023BB6200237B6300237B62A8
:1037600000233B63224B5B68FB62FB6A0C22134025
:10377000042B02D0082B03D02DE01E4B3B632DE021
:10378000FB6A9B0C0F2213401422BA18D35C7B6295
:10379000174BDB6A0F2213403A1DD35CBB62FA6AF7
:1037A00080235B02134009D0B96A1248FCF7ACFCD5
:1037B00003001A007B6A53437B6309E0796A0A00BD
:1037C0005201521A93019B1ADB005B181B027B63A8
:1037D0007B6B3B6302E0074B3B63C0463B6B1800CF
:1037E000BD460FB090BDC046D8FC0008E8FC0008FC
:1037F0000010024000127A0080B500AF024B1B6837
:103800001800BD4680BDC0460800002080B500AF4E
:10381000FFF7F2FF0100064B5B681B0A072213400B
:10382000044AD35CD9400B001800BD4680BDC04699
:103830000010024088FF000880B582B000AF7860B9
:103840007B68002B01D1012342E07B683D229B5C19
:10385000DBB2002B07D17B683C22002199547B68A6
:1038600018000BF0F9F97B683D22022199547B681E
:103870001A687B6804331900100000F03DFD7B6876
:103880004622012199547B683E22012199547B688C
:103890003F22012199547B684022012199547B6881
:1038A0004122012199547B684222012199547B686D
:1038B0004322012199547B684422012199547B6859
:1038C0004522012199547B683D220121995400230E
:1038D0001800BD4602B080BD80B584B000AF7860EE
:1038E0007B683D229B5CDBB2012B01D0012335E0DC
:1038F0007B683D22022199547B681B68DA687B68EB
:103900001B6801210A43DA607B681B68154A9342F1
:1039100009D07B681B68144A934204D07B681B68FB
:10392000124A934211D17B681B689B68072213409F
:10393000FB60FB68062B10D07B681B681A687B68ED
:103940001B6801210A431A6007E07B681B681A683C
:103950007B681B6801210A431A6000231800BD46DA
:1039600004B080BD002C0140000400400040014034
:1039700080B582B000AF78607B68002B01D1012355
:1039800042E07B683D229B5CDBB2002B07D17B6869
:103990003C22002199547B6818000BF0EDF87B68FD
:1039A0003D22022199547B681A687B680433190010
:1039B000100000F0A1FC7B684622012199547B682D
:1039C0003E22012199547B683F22012199547B6852
:1039D0004022012199547B684122012199547B683E
:1039E0004222012199547B684322012199547B682A
:1039F0004422012199547B684522012199547B6816
:103A00003D220121995400231800BD4602B080BD1B
:103A100080B584B000AF786039603B68002B08D176
:103A20007B683E229B5CDBB2013B5A1E9341DBB2BA
:103A30001FE03B68042B08D17B683F229B5CDBB214
:103A4000013B5A1E9341DBB213E03B68082B08D1BF
:103A50007B6840229B5CDBB2013B5A1E9341DBB288
:103A600007E07B6841229B5CDBB2013B5A1E93411D
:103A7000DBB2002B01D001236EE03B68002B04D1A8
:103A80007B683E220221995413E03B68042B04D149
:103A90007B683F22022199540BE03B68082B04D13C
:103AA0007B6840220221995403E07B684122022175
:103AB00099547B681B6839680122180000F08EFE5B
:103AC0007B681B68264A93420ED07B681B68254A98
:103AD000934209D07B681B68234A934204D07B68D9
:103AE0001B68224A934201D1012300E00023002BEE
:103AF00008D07B681B685A6C7B681B6880210902B0
:103B00000A435A647B681B68154A934209D07B6854
:103B10001B68174A934204D07B681B68114A934282
:103B200011D17B681B689B6807221340FB60FB6810
:103B3000062B10D07B681B681A687B681B68012104
:103B40000A431A6007E07B681B681A687B681B6879
:103B500001210A431A6000231800BD4604B080BD4D
:103B6000002C014000400140004401400048014059
:103B70000004004080B584B000AF786039600F2346
:103B8000FB1800221A703B68002B08D17B683E228C
:103B90009B5CDBB2013B5A1E9341DBB21FE03B68EA
:103BA000042B08D17B683F229B5CDBB2013B5A1E91
:103BB0009341DBB213E03B68082B08D17B684022BD
:103BC0009B5CDBB2013B5A1E9341DBB207E07B6892
:103BD00041229B5CDBB2013B5A1E9341DBB2002BBE
:103BE00001D00123B1E03B68002B04D17B683E2269
:103BF0000221995413E03B68042B04D17B683F22D7
:103C0000022199540BE03B68082B04D17B684022C9
:103C10000221995403E07B684122022199543B68B8
:103C20000C2B2AD03B680C2B30D83B68082B1BD0C0
:103C30003B68082B2AD83B68002B03D03B68042B39
:103C400009D023E07B681B68DA687B681B68022167
:103C50000A43DA601FE07B681B68DA687B681B68D0
:103C600004210A43DA6016E07B681B68DA687B6827
:103C70001B6808210A43DA600DE07B681B68DA687C
:103C80007B681B6810210A43DA6004E00F23FB18ED
:103C900001221A70C0460F23FB181B78002B51D14C
:103CA0007B681B6839680122180000F097FD7B686B
:103CB0001B68284A93420ED07B681B68264A9342B1
:103CC00009D07B681B68254A934204D07B681B6837
:103CD000234A934201D1012300E00023002B08D0A6
:103CE0007B681B685A6C7B681B68802109020A4349
:103CF0005A647B681B68174A934209D07B681B682B
:103D0000184A934204D07B681B68134A934211D12E
:103D10007B681B689B6807221340BB60BB68062B4F
:103D200010D07B681B681A687B681B6801210A43F6
:103D30001A6007E07B681B681A687B681B680121B2
:103D40000A431A600F23FB181B781800BD4604B005
:103D500080BDC046002C01400040014000440140AD
:103D6000004801400004004080B584B000AF786096
:103D700039600F23FB1800221A703B680C2B2AD0E5
:103D80003B680C2B30D83B68082B1BD03B68082BBA
:103D90002AD83B68002B03D03B68042B09D023E0D2
:103DA0007B681B68DA687B681B6802218A43DA60DB
:103DB0001FE07B681B68DA687B681B6804218A4304
:103DC000DA6016E07B681B68DA687B681B6808218C
:103DD0008A43DA600DE07B681B68DA687B681B68E1
:103DE00010218A43DA6004E00F23FB1801221A70C5
:103DF000C0460F23FB181B78002B00D063E07B68C4
:103E00001B6839680022180000F0E8FC7B681B681A
:103E1000304A93420ED07B681B682F4A934209D0E8
:103E20007B681B682D4A934204D07B681B682C4A30
:103E3000934201D1012300E00023002B13D07B68C3
:103E40001B681B6A274A13400DD17B681B681B6ADD
:103E5000254A134007D17B681B685A6C7B681B6836
:103E600022490A405A647B681B681B6A1D4A13403A
:103E70000DD17B681B681B6A1B4A134007D17B6806
:103E80001B681A687B681B6801218A431A603B68BB
:103E9000002B04D17B683E220121995413E03B683A
:103EA000042B04D17B683F22012199540BE03B682D
:103EB000082B04D17B6840220121995403E07B68E0
:103EC0004122012199540F23FB181B781800BD468D
:103ED00004B080BD002C014000400140004401407E
:103EE000004801401111000044040000FF7FFFFF63
:103EF00080B582B000AF78607B681B681B690222C6
:103F00001340022B24D17B681B68DB68022213401C
:103F1000022B1DD17B681B68032252421A617B6809
:103F200001221A777B681B689B690322134004D027
:103F30007B68180000F0C8F907E07B68180000F003
:103F4000BBF97B68180000F0C7F97B6800221A777C
:103F50007B681B681B6904221340042B25D17B68F6
:103F60001B68DB6804221340042B1ED17B681B688E
:103F7000052252421A617B6802221A777B681B680D
:103F80009A69C0239B00134004D07B68180000F09E
:103F90009BF907E07B68180000F08EF97B68180039
:103FA00000F09AF97B6800221A777B681B681B690E
:103FB00008221340082B24D17B681B68DB68082289
:103FC0001340082B1DD17B681B68092252421A61DD
:103FD0007B6804221A777B681B68DB690322134025
:103FE00004D07B68180000F06FF907E07B681800C8
:103FF00000F062F97B68180000F06EF97B6800221F
:104000001A777B681B681B6910221340102B25D17F
:104010007B681B68DB6810221340102B1ED17B6865
:104020001B68112252421A617B6808221A777B684A
:104030001B68DA69C0239B00134004D07B6818001A
:1040400000F042F907E07B68180000F035F97B6862
:10405000180000F041F97B6800221A777B681B6822
:104060001B6901221340012B0FD17B681B68DB68A1
:1040700001221340012B08D17B681B6802225242A7
:104080001A617B68180000F00FF97B681B681B69D8
:1040900080221340802B0FD17B681B68DB68802255
:1040A0001340802B08D17B681B68812252421A6121
:1040B0007B68180000F074FC7B681B681B69402259
:1040C0001340402B0FD17B681B68DB6840221340F4
:1040D000402B08D17B681B68412252421A617B68E1
:1040E000180000F001F97B681B681B69202213404F
:1040F000202B0FD17B681B68DB6820221340202B0C
:1041000008D17B681B68212252421A617B68180023
:1041100000F03EFCC046BD4602B080BD80B586B012
:1041200000AFF860B9607A601723FB1800221A709C
:10413000FB683C229B5C012B01D10223ADE0FB68B4
:104140003C22012199547B680C2B00D176E07B68DE
:104150000C2B00D995E07B68082B4ED07B68082B90
:1041600000D98EE07B68002B03D07B68042B21D024
:1041700087E0FB681B68BA681100180000F032F98C
:10418000FB681B689A69FB681B6808210A439A61EF
:10419000FB681B689A69FB681B6804218A439A6163
:1041A000FB681B689969BB681A69FB681B680A434E
:1041B0009A616BE0FB681B68BA681100180000F098
:1041C00099F9FB681B689A69FB681B6880210901E3
:1041D0000A439A61FB681B689A69FB681B6831494E
:1041E0000A409A61FB681B689969BB681B691A02DF
:1041F000FB681B680A439A6148E0FB681B68BA6861
:104200001100180000F0FAF9FB681B68DA69FB6816
:104210001B6808210A43DA61FB681B68DA69FB68DE
:104220001B6804218A43DA61FB681B68D969BB6893
:104230001A69FB681B680A43DA6127E0FB681B68A0
:10424000BA681100180000F05FFAFB681B68DA69B1
:10425000FB681B68802109010A43DA61FB681B685F
:10426000DA69FB681B680F490A40DA61FB681B6862
:10427000D969BB681B691A02FB681B680A43DA61CB
:1042800004E01723FB1801221A70C046FB683C2289
:10429000002199541723FB181B781800BD4606B05F
:1042A00080BDC046FFFBFFFF80B582B000AF7860E5
:1042B000C046BD4602B080BD80B582B000AF786018
:1042C000C046BD4602B080BD80B582B000AF786008
:1042D000C046BD4602B080BD80B582B000AF7860F8
:1042E000C046BD4602B080BD80B582B000AF7860E8
:1042F000C046BD4602B080BD80B584B000AF7860D6
:1043000039607B681B68FB607B682F4A934203D04F
:104310007B682E4A934208D1FB6870229343FB606E
:104320003B685B68FA681343FB607B68264A9342EC
:1043300013D07B68254A93420FD07B68244A93426E
:104340000BD07B68234A934207D07B68224A934272
:1043500003D07B68214A934208D1FB68204A13406E
:10436000FB603B68DB68FA681343FB60FB688022F4
:1043700093431A003B685B691343FB607B68FA68F0
:104380001A603B689A687B68DA623B681A687B68E7
:104390009A627B680C4A93420BD07B680D4A934229
:1043A00007D07B680C4A934203D07B680B4A934248
:1043B00003D13B681A697B681A637B6801225A61E2
:1043C000C046BD4604B080BD002C01400004004042
:1043D00000200040004001400044014000480140EE
:1043E000FFFCFFFF80B586B000AF786039607B6866
:1043F0001B6A012293431A007B681A627B681B6A5E
:104400007B617B685B683B617B689B69FB60FB68E9
:1044100070229343FB60FB6803229343FB603B687D
:104420001B68FA681343FB607B69022293437B613C
:104430003B689B687A6913437B617B68274A934298
:104440000BD07B68264A934207D07B68254A93426B
:1044500003D07B68244A93420CD17B6908229343A2
:104460007B613B68DB687A6913437B617B6904226B
:1044700093437B617B68194A93420BD07B68184A4F
:10448000934207D07B68174A934203D07B68164A51
:10449000934211D13B69154A13403B613B69144A71
:1044A00013403B613B685B693A6913433B613B687E
:1044B0009B693A6913433B617B683A695A607B6840
:1044C000FA689A613B685A687B685A637B687A69C4
:1044D0001A62C046BD4606B080BDC046002C0140F1
:1044E000004001400044014000480140FFFEFFFF42
:1044F000FFFDFFFF80B586B000AF786039607B6854
:104500001B6A102293431A007B681A627B681B6A3D
:104510007B617B685B683B617B689B69FB60FB68D8
:104520002E4A1340FB60FB682D4A1340FB603B683A
:104530001B681B02FA681343FB607B6920229343CC
:104540007B613B689B681B017A6913437B617B68D5
:10455000244A93420DD17B69802293437B613B685F
:10456000DB681B017A6913437B617B6940229343BB
:104570007B617B681B4A93420BD07B681A4A93424B
:1045800007D07B68194A934203D07B68184A93424C
:1045900013D13B69174A13403B613B69164A1340EC
:1045A0003B613B685B699B003A6913433B613B6835
:1045B0009B699B003A6913433B617B683A695A6087
:1045C0007B68FA689A613B685A687B689A637B6883
:1045D0007A691A62C046BD4606B080BDFF8FFFFFF4
:1045E000FFFCFFFF002C014000400140004401405F
:1045F00000480140FFFBFFFFFFF7FFFF80B586B0DB
:1046000000AF786039607B681B6A354A1A407B6866
:104610001A627B681B6A7B617B685B683B617B68B5
:10462000DB69FB60FB6870229343FB60FB6803223D
:104630009343FB603B681B68FA681343FB607B692C
:10464000284A13407B613B689B681B027A691343CD
:104650007B617B68244A93420DD17B69234A1340D6
:104660007B613B68DB681B027A6913437B617B6972
:104670001F4A13407B617B681B4A93420BD07B68C7
:104680001C4A934207D07B681B4A934203D07B6845
:104690001A4A934213D13B69194A13403B613B6963
:1046A000184A13403B613B685B691B013A6913433D
:1046B0003B613B689B691B013A6913433B617B6823
:1046C0003A695A607B68FA68DA613B685A687B68C5
:1046D000DA637B687A691A62C046BD4606B080BD5F
:1046E000FFFEFFFFFFFDFFFF002C0140FFF7FFFF74
:1046F000FFFBFFFF00400140004401400048014033
:10470000FFEFFFFFFFDFFFFF80B586B000AF7860EF
:1047100039607B681B6A284A1A407B681A627B688A
:104720001B6A3B617B685B687B617B68DB69FB6064
:10473000FB68224A1340FB60FB68214A1340FB6080
:104740003B681B681B02FA681343FB603B691D4A08
:1047500013403B613B689B681B033A6913433B6111
:104760007B68194A93420BD07B68184A934207D062
:104770007B68174A934203D07B68164A934209D15B
:104780007B69154A13407B613B685B699B017A69D1
:1047900013437B617B687A695A607B68FA68DA61E7
:1047A0003B685A687B681A647B683A691A62C0463B
:1047B000BD4606B080BDC046FFEFFFFFFF8FFFFF85
:1047C000FFFCFFFFFFDFFFFF002C01400040014026
:1047D0000044014000480140FFBFFFFF80B586B0A4
:1047E00000AFF860B9607A60BB681F2213400122F5
:1047F0009A4013007B61FB681B6A7A69D2431A40B6
:10480000FB681A62FB681A6ABB681F210B40796853
:1048100099400B001A43FB681A62C046BD4606B0B9
:1048200080BD000080B584B000AF786039607B68DF
:104830003C229B5C012B01D1022341E07B683C229E
:10484000012199547B683D22022199547B681B68A1
:104850005B68FB607B681B689B68BB60FB687022C1
:104860009343FB603B681B68FA681343FB607B68FB
:104870001B68FA685A607B681B68134A934209D028
:104880007B681B68114A934204D07B681B68104AFE
:1048900093420CD1BB6880229343BB603B685B684A
:1048A000BA681343BB607B681B68BA689A607B6810
:1048B0003D22012199547B683C2200219954002318
:1048C0001800BD4604B080BD002C0140000400402B
:1048D0000040014080B584B000AF786039600023AB
:1048E000FB607B683C229B5C012B01D102233EE0F4
:1048F0007B683C2201219954FB68FF2293431A00F4
:104900003B68DB681343FB60FB681B4A1A403B684B
:104910009B681343FB60FB68184A1A403B685B685E
:104920001343FB60FB68164A1A403B681B6813433D
:10493000FB60FB68134A1A403B681B691343FB602A
:10494000FB68114A1A403B685B691343FB60FB68D4
:104950000E4A1A403B68DB691343FB607B681B68A7
:10496000FA685A647B683C2200219954002318009D
:10497000BD4604B080BDC046FFFCFFFFFFFBFFFF4C
:10498000FFF7FFFFFFEFFFFFFFDFFFFFFFBFFFFFAF
:1049900080B582B000AF7860C046BD4602B080BD31
:1049A00080B582B000AF7860C046BD4602B080BD21
:1049B00080B582B000AF78607B68002B01D1012305
:1049C00044E07B689B6F002B07D17B687422002139
:1049D00099547B6818000BF087F87B6824229A674B
:1049E0007B681B681A687B681B6801218A431A6010
:1049F0007B68180000F018FC0300012B01D1012393
:104A000024E07B685B6A002B03D07B68180000F011
:104A10004BFD7B681B685A687B681B680D490A4020
:104A20005A607B681B689A687B681B6808218A4308
:104A30009A607B681B681A687B681B6801210A43BF
:104A40001A607B68180000F0E3FD03001800BD4603
:104A500002B080BDFFF7FFFF80B588B000AFF860FF
:104A6000B960BB1D1A80FB689B6F202B00D08AE0C9
:104A7000BB68002B03D0BB1D1B88002B01D1012379
:104A800082E0FB689A6880235B019A4209D1FB6847
:104A90001B69002B05D1BB680122134001D0012303
:104AA00072E0FB6874229B5C012B01D102236BE056
:104AB000FB68742201219954FB68BA68DA64FB68C8
:104AC000BA1D502112885A52FB68BA1D5221128811
:104AD0005A52FB68802200219950FB6821229A6774
:104AE000FB68DB6E002B2BD0FB68DB6E284A9A62DA
:104AF000FB68DB6E274ADA62FB68DB6E264A1A63C4
:104B0000FB68DB6E00225A63FB68D86EFB68DB6CC7
:104B10001900FB681B6828331A00BB1D1B88FDF7B2
:104B2000D7FD031E0CD0FB68802210219950FB6832
:104B3000742200219954FB6820229A67012323E004
:104B4000FB681B6840221A62FB687422002199549A
:104B5000EFF310833B613B69FB6101237B617B6960
:104B600083F31088C046FB681B689A68FB681B6863
:104B700080210A439A60FB69BB61BB6983F310889B
:104B8000C046002300E002231800BD4608B080BDE7
:104B9000795A00080D5B00088D5C000880B588B06C
:104BA00000AFF860B960BB1D1A80FB68DB6F202B7B
:104BB00050D1BB68002B03D0BB1D1B88002B01D13B
:104BC000012348E0FB689A6880235B019A4209D17F
:104BD000FB681B69002B05D1BB680122134001D083
:104BE000012338E0FB6874229B5C012B01D1022376
:104BF00031E0FB68742201219954FB6800221A6697
:104C0000FB681B685A6880231B04134019D0EFF31C
:104C100010833B613B69FB6101237B617B6983F30B
:104C20001088C046FB681B681A68FB681B688021F7
:104C3000C9040A431A60FB69BB61BB6983F310882E
:104C4000C046BB1D1A88B968FB68180000F0ECFD6F
:104C5000030000E002231800BD4608B080BD00003C
:104C600090B5ABB000AF78607B681B68DB69A422AD
:104C7000B9180B607B681B681B68A02039180B6093
:104C80007B681B689B689C2179180B601100BB181E
:104C90001B68994A13409822BC182360BB181B68F4
:104CA000002B14D17B181B68202213400FD03B1817
:104CB0001B68202213400AD07B685B6E002B00D15A
:104CC0007EE27B685B6E7A681000984778E29823F2
:104CD000FB181B68002B00D114E19C23FB181B68F8
:104CE0000122134006D1A023FB181B68834A1340FE
:104CF00000D107E1A423FB181B680122134012D046
:104D0000A023FB181A6880235B0013400BD07B683C
:104D10001B6801221A627B6880229B5801221A4379
:104D20007B6880215A50A423FB181B680222134081
:104D300011D09C23FB181B68012213400BD07B6809
:104D40001B6802221A627B6880229B5804221A4345
:104D50007B6880215A50A423FB181B68042213404F
:104D600011D09C23FB181B68012213400BD07B68D9
:104D70001B6804221A627B6880229B5802221A4315
:104D80007B6880215A50A423FB181B68082213401B
:104D900017D0A023FB181B682022134005D19C23A9
:104DA000FB181B68012213400BD07B681B6808228C
:104DB0001A627B6880229B5808221A437B688021F4
:104DC0005A50A423FB181A6880231B01134013D0E8
:104DD000A023FB181A688023DB0413400CD07B68E7
:104DE0001B68802212011A627B6880229B58202255
:104DF0001A437B6880215A507B6880229B58002B85
:104E000000D1DFE1A423FB181B68202213400ED041
:104E1000A023FB181B682022134008D07B685B6E20
:104E2000002B04D07B685B6E7A68100098477B6823
:104E300080229B5894217A1813607B681B689B68BA
:104E400040221340402B04D07B181B6828221340BB
:104E500047D07B68180000F0ADFD7B681B689B683D
:104E600040221340402B37D1EFF310833B663B6E5B
:104E700090203A18136001237B667B6E83F31088C1
:104E8000C0467B681B689A687B681B6840218A4320
:104E90009A603B181B68BB66BB6E83F31088C046E4
:104EA0007B681B6F002B12D07B681B6F144A5A6300
:104EB0007B681B6F1800FDF7A9FC031E1AD07B68E6
:104EC0001B6F5A6B7B681B6F1800904712E07B6862
:104ED000180000F095F90DE07B68180000F090F9DB
:104EE00008E07B68180000F08BF97B6880220021C5
:104EF000995067E1C04665E10F08000020010004F9
:104F00000F5D00087B681B6E012B00D031E1A423EC
:104F1000FB181B681022134000D12AE1A023FB18C4
:104F20001B681022134000D123E17B681B6810220C
:104F30001A627B681B689B6840221340402B00D09C
:104F40009BE07B681B6F1B685A687E217B181A8068
:104F50007B181B88002B00D136E17B6858229B5AB6
:104F60007A1812889A4200D32EE17B687A185A2167
:104F700012885A527B681B6F9B69202B6ED0EFF30F
:104F800010833B633B6BBB6701237B637B6B83F3CA
:104F90001088C0467B681B681A687B681B688E494E
:104FA0000A401A60BB6FBB63BB6B83F31088C046BB
:104FB000EFF31083FB63FB6B7B6701233B643B6C6C
:104FC00083F31088C0467B681B689A687B681B68FF
:104FD00001218A439A607B6F7B647B6C83F310882A
:104FE000C046EFF31083BB64BB6C3B670123FB64DB
:104FF000FB6C83F31088C0467B681B689A687B68EB
:105000001B6840218A439A603B6F3B653B6D83F38D
:105010001088C0467B682022DA677B6800221A6607
:10502000EFF310837B657B6DFB660123BB65BB6D76
:1050300083F31088C0467B681B681A687B681B680E
:1050400010218A431A60FB6EFB65FB6D83F31088A9
:10505000C0467B681B6F1800FDF7A0FB7B685822D9
:105060009A5A7B685A215B5A9BB2D31A9AB27B68D0
:105070001100180000F0CCF8A6E07B685822995A7D
:105080007B685A229B5A9AB28E203B188A1A1A8041
:105090007B685A229B5A9BB2002B00D196E03B18AA
:1050A0001B88002B00D191E0EFF31083FB60FB68BD
:1050B00088243A19136001233B613B6983F310880C
:1050C000C0467B681B681A687B681B6843490A40B6
:1050D0001A603B191B687B617B6983F31088C046AB
:1050E000EFF31083BB61BB6984243A191360012379
:1050F000FB61FB6983F31088C0467B681B689A6874
:105100007B681B6801218A439A603B191B683B62DC
:105110003B6A83F31088C0467B682022DA677B688D
:1051200000221A667B6800225A66EFF310837B62C6
:105130007B6A80243A1913600123BB62BB6A83F344
:105140001088C0467B681B681A687B681B68102142
:105150008A431A603B191B68FB62FB6A83F3108861
:10516000C0463B181A887B681100180000F050F800
:105170002CE0A423FB181B68802213400FD0A0232F
:10518000FB181B688022134009D07B689B6E002BA4
:105190001ED07B689B6E7A681000984718E0A423A5
:1051A000FB181B684022134013D0A023FB181B6878
:1051B000402213400DD07B68180000F0BFFD08E0CE
:1051C000C04606E0C04604E0C04602E0C04600E03B
:1051D000C046BD462BB090BDFFFEFFFFDFFEFFFFC8
:1051E00080B582B000AF7860C046BD4602B080BDD9
:1051F00080B582B000AF7860C046BD4602B080BDC9
:1052000080B582B000AF7860C046BD4602B080BDB8
:1052100080B582B000AF78600A00BB1C1A80C0461F
:10522000BD4602B080BD000080B588B000AF786098
:105230001E23FB1800221A707B689A687B681B6922
:105240001A437B685B691A437B68DB6913437B61A4
:105250007B681B681B688D4A134019007B681B68BC
:105260007A690A431A607B681B685B68884A134046
:1052700019007B68DA687B681B680A435A607B68A0
:105280009B697B617B681B6A7A6913437B617B68DE
:105290001B689B687F4A134019007B681B687A690A
:1052A0000A439A607B681B687B4A934227D17B4BF9
:1052B0001B6B03221340032B0DD01BD8022B14D0E1
:1052C00018D8002B02D0012B0AD013E01F23FB18A3
:1052D00000221A7021E01F23FB1802221A701CE022
:1052E0001F23FB1804221A7017E01F23FB18082243
:1052F0001A7012E01F23FB1810221A700DE07B6851
:105300001B68674A934204D11F23FB1800221A70BE
:1053100003E01F23FB1810221A707B68DA698023D0
:105320001B029A425DD11F23FB181B78082B15D056
:1053300018DC042B0DD015DC002B02D0022B05D07D
:1053400010E0FEF763FA0300BB6112E0554BBB614E
:105350000FE0FEF7EDF90300BB610AE080231B02BA
:10536000BB6106E00023BB611E23FB1801221A70FB
:10537000C046BB69002B00D17BE0BB695A007B684B
:105380005B685B08D2187B685B6819001000FAF74D
:10539000BBFE03009BB23B613B690F2B1CD93A69F2
:1053A00080235B029A4217D23B699AB20E203B18C7
:1053B0000F218A431A803B695B089BB20722134086
:1053C00099B23B183A1812880A431A807B681B6806
:1053D0003A181288DA604CE01E23FB1801221A707A
:1053E00047E01F23FB181B78082B15D018DC042B73
:1053F0000DD015DC002B02D0022B05D010E0FEF7FB
:1054000005FA0300BB6112E0264BBB610FE0FEF71B
:105410008FF90300BB610AE080231B02BB6106E039
:105420000023BB611E23FB1801221A70C046BB6912
:10543000002B1ED07B685B685A08BB69D2187B685A
:105440005B6819001000FAF75FFE03009BB23B6136
:105450003B690F2B09D93A6980235B029A4204D237
:105460007B681B683A69DA6003E01E23FB1801229F
:105470001A707B6800225A667B6800229A661E2397
:10548000FB181B781800BD4608B080BDF369FFFF0C
:10549000FFCFFFFFFFF4FFFF003801400010024084
:1054A0000044004000127A0080B582B000AF7860FE
:1054B0007B685B6A012213400BD07B681B685B68CA
:1054C0004A4A134019007B689A6A7B681B680A4342
:1054D0005A607B685B6A022213400BD07B681B68B2
:1054E0005B68434A134019007B68DA6A7B681B6873
:1054F0000A435A607B685B6A042213400BD07B68C6
:105500001B685B683B4A134019007B681A6B7B6819
:105510001B680A435A607B685B6A082213400BD001
:105520007B681B685B68344A134019007B685A6BC0
:105530007B681B680A435A607B685B6A10221340D1
:105540000BD07B681B689B682C4A134019007B6852
:105550009A6B7B681B680A439A607B685B6A2022AF
:1055600013400BD07B681B689B68254A13401900C9
:105570007B68DA6B7B681B680A439A607B685B6AAE
:10558000402213401DD07B681B685B681D4A134096
:1055900019007B681A6C7B681B680A435A607B6839
:1055A0001A6C80235B039A420BD17B681B685B6893
:1055B000154A134019007B685A6C7B681B680A43C4
:1055C0005A607B685B6A802213400BD07B681B6843
:1055D0005B680E4A134019007B689A6C7B681B68F5
:1055E0000A435A60C046BD4602B080BDFFFFFDFFC2
:1055F000FFFFFEFFFFFFFBFFFF7FFFFFFFEFFFFF50
:10560000FFDFFFFFFFFFEFFFFFFF9FFFFFFFF7FF42
:1056100080B586B002AF78607B6880220021995007
:10562000FCF7DEFE0300FB607B681B681B6808223A
:105630001340082B0CD1FB68802291037868174A2D
:105640000092002200F02CF8031E01D0032321E079
:105650007B681B681B6804221340042B0CD1FB6879
:105660008022D10378680D4A0092002200F018F8D9
:10567000031E01D003230DE07B6820229A677B681C
:105680002022DA677B6800221A667B687422002178
:10569000995400231800BD4604B080BDFFFFFF01F0
:1056A00080B594B000AFF860B9603B60FB1D1A7024
:1056B000A3E0BB6D013300D19FE0FCF791FE020037
:1056C0003B68D31ABA6D9A4202D3BB6D002B3DD111
:1056D000EFF31083BB62BB6A7B640123FB62FB6A4E
:1056E00083F31088C046FB681B681A68FB681B6858
:1056F0004C490A401A607B6C3B633B6B83F3108818
:10570000C046EFF310837B637B6B3B640123BB6379
:10571000BB6B83F31088C046FB681B689A68FB6804
:105720001B6801218A439A603B6CFB63FB6B83F32C
:105730001088C046FB6820229A67FB682022DA673F
:10574000FB68742200219954032367E0FB681B68FF
:105750001B680422134050D0FB681B68DA69802361
:105760001B011A4080231B019A4246D1FB681B682B
:10577000802212011A62EFF310833B613B69FB64E4
:1057800001237B617B6983F31088C046FB681B683B
:105790001A68FB681B6823490A401A60FB6CBB61EE
:1057A000BB6983F31088C046EFF31083FB61FB698C
:1057B000BB6401233B623B6A83F31088C046FB68ED
:1057C0001B689A68FB681B6801218A439A60BB6C5E
:1057D0007B627B6A83F31088C046FB6820229A674D
:1057E000FB682022DA67FB68802220219950FB6841
:1057F000742200219954032310E0FB681B68DB69C5
:10580000BA681340BA68D31A5A425341DBB21A003D
:10581000FB1D1B789A4200D14BE700231800BD46C0
:1058200014B080BD5FFEFFFF80B590B000AFF860A0
:10583000B960BB1D1A80FB68BA685A65FB68BA1D5F
:10584000582112885A52FB68802200219950FB6827
:105850002222DA67FB681B6F002B2BD0FB681B6FC3
:105860003F4A9A62FB681B6F3E4ADA62FB681B6F15
:105870003D4A1A63FB681B6F00225A63FB68186F6E
:10588000FB681B6824331900FB685B6D1A00BB1DA5
:105890001B88FCF71DFF031E0CD0FB688022102123
:1058A0009950FB68742200219954FB682022DA6722
:1058B000012350E0FB68742200219954EFF3108318
:1058C0003B613B69FB6301237B617B6983F3108848
:1058D000C046FB681B681A68FB681B68802149008A
:1058E0000A431A60FB6BBB61BB6983F31088C04637
:1058F000EFF31083FB61FB69BB6301233B623B6AEF
:1059000083F31088C046FB681B689A68FB681B68B5
:1059100001210A439A60BB6B7B627B6A83F3108828
:10592000C046EFF31083BB62BB6A7B630123FB625B
:10593000FB6A83F31088C046FB681B689A68FB68A3
:105940001B6840210A439A607B6B3B633B6B83F38C
:105950001088C04600231800BD4610B080BDC04668
:105960002D5B0008515C00088D5C000880B586B096
:1059700000AF7860EFF31083BB60BB687B610123ED
:10598000FB60FB6883F31088C0467B681B681A685D
:105990007B681B68C0218A431A607B693B613B6955
:1059A00083F31088C0467B6820229A67C046BD46B4
:1059B00006B080BD80B58EB000AF7860EFF3108385
:1059C0007B617B697B630123BB61BB6983F31088C7
:1059D000C0467B681B681A687B681B6825490A40BB
:1059E0001A607B6BFB61FB6983F31088C046EFF3A1
:1059F00010833B623B6A3B6301237B627B6A83F3D8
:105A00001088C0467B681B689A687B681B68012108
:105A10008A439A603B6BBB62BB6A83F31088C046C3
:105A20007B681B6E012B18D1EFF31083BB60BB6842
:105A3000FB620123FB60FB6883F31088C0467B6830
:105A40001B681A687B681B6810218A431A60FB6A0E
:105A50003B613B6983F31088C0467B682022DA678C
:105A60007B6800221A667B6800225A66C046BD46E3
:105A70000EB080BDDFFEFFFF80B58CB000AF786058
:105A80007B685B6AFB627B689B69202B35D0FB6A75
:105A9000522200219952EFF31083FB60FB68BB6236
:105AA00001233B613B6983F31088C046FB6A1B6896
:105AB0009A68FB6A1B6880218A439A60BB6A7B6193
:105AC0007B6983F31088C046EFF31083BB61BB6929
:105AD0007B620123FB61FB6983F31088C046FB6A8C
